:10000000AFEF15F00000000000EF00F0000000006E
:0A0010000000000000000000F3D71C
:0E001C00010121B102D08B9801D08B88120017
:0E002A00010121B102D08B9601D08B8612000D
:0E003800010121B102D08D9601D08D861200FB
:0E004600010121B102D0899401D089841200F9
:0E005400010121B102D08B9C01D08B8C1200D7
:0E006200010121B102D08B9401D08B841200D9
:0E007000010121B102D08B9A01D08B8A1200BF
:0E007E00010121B102D08B9E01D08B8E1200A9
:0E008C00010121B102D08A9201D08A821200B5
:0E009A00010121B102D08D9401D08D8412009D
:0E00A800010121B102D08F9201D08F8212008F
:0E00B600010121B102D08F9401D08F8412007D
:0E00C400010121B102D08B9801D08B8812006F
:0E00D200010121B102D08B9601D08B86120065
:0E00E000010121B102D08A9401D08A8412005D
:0E00EE00010121B102D08B9801D08B88120045
:0E00FC00010121B102D08B9601D08B8612003B
:0E010A00010121B102D08F9001D08F80120030
:0E011800010121B102D08B9A01D08B8A120016
:0E012600010121B102D08B9801D08B8812000C
:0E013400010121B102D08B9801D08B881200FE
:0E014200010121B102D08B9601D08B861200F4
:0E015000010121B102D08B9201D08B821200EE
:0E015E00010121B102D08B9A01D08B8A1200D0
:0E016C00010121B102D08D9001D08D801200D2
:10017A000F0121B302D00000FBD721C11CFF1200DE
:0E018A00ACB202D00000FCD721C1ADFF1200C4
:0E019800010121B102D08B9001D08B801200AA
:0E01A600010121B102D0899001D089801200A0
:0E01B400010121B102D0899801D08988120082
:0E01C200010121B102D0899201D08982120080
:0E01D000010121B102D08B9601D08B86120066
:0E01DE00010121B102D08D9201D08D8212005C
:0E01EC00010121B102D08B9801D08B88120046
:0E01FA00010121B102D08B9E01D08B8E12002C
:0E020800010121B102D08A9001D08A8012003B
:0E021600010121B102D08B9601D08B8612001F
:0E022400010121B102D08B9C01D08B8C120005
:10023200F250026EF29E0500FF6A0150FE6E0050FF
:08024200FD6E02BEF28E1200F7
:10024A0068B409D01F0E6614016E0150000A03E15A
:0A025A00010E006E01D0006A1200D0
:10026400C7B409D01F0EC514016E0150000A03E182
:0A027400010E006E01D0006A1200B6
:0A027E00000E82B8010E006E12009F
:0A028800000E82BE010E006E12008F
:0A029200000E82BC010E006E120087
:0A029C00000E82B8010E006E120081
:0A02A600000E81B2010E006E12007E
:0A02B000000E82BE010E006E120067
:0A02BA00000E82BA010E006E120061
:0A02C400000E82BC010E006E120055
:0A02CE00000E82BA010E006E12004D
:0A02D800000EA4BA010E006E120021
:1002E20058C01DF159C01EF15AC01FF15BC020F168
:1002F20001011B6B1C6B1C51120802E11B518E0881
:1003020008E3A2DF005201E004D001011B4B1C2BC9
:10031200F2D70101120E1C5D02E18F0E1B5D03E399
:100322007B0E006E24D0668066A020D058505910F3
:100332005A105B101AE01D511E111F1120110EE1FF
:10034200BAC0E1FFBBC0E2FF050EE66EB8C000F026
:10035200B9C001F06DDF010E006E09D0010E01017E
:100362001D5F000E1E5B1F5B205BDED7006A120062
:10037200AECF01F0ABA202D0AB98AB8801C000F0C7
:02038200120067
:0A038400000E82B6010E006E12009A
:0A038E00000E82B6010E006E120090
:0A039800000E9EBA010E006E120066
:0A03A200000E84B6010E006E12007A
:0A03AC00000E82B6010E006E120072
:0A03B600000E82B8010E006E120066
:1003C00058C01DF159C01EF15AC01FF15BC020F189
:1003D000A19A6686A1BA1FD0585059105A105B10C6
:1003E00019E001011D511E111F1120110CE1BAC0AD
:1003F000E1FFBBC0E2FF030EE66EB8C000F0B9C07B
:1004000001F017DF08D0010E01011D5F000E1E5B19
:100410001F5B205BDFD701016ACF1CF11B51000A73
:1004200002E1668A01D0669AA19A668858C01DF1D9
:1004300059C01EF15AC01FF15BC020F1A1BA1FD0F4
:10044000585059105A105B1019E001011D511E112E
:100450001F1120110CE1BAC0E1FFBBC0E2FF030E87
:10046000E66EB8C000F0B9C001F0E3DE08D0010EBE
:1004700001011D5F000E1E5B1F5B205BDFD71CC1EF
:0404800000F0120076
:0A048400000E80B2010E006E12009F
:0A048E00000E80B8010E006E12008F
:0A049800000E84B2010E006E120087
:1004A2009E961BC1C9FF54C01CF155C01DF156C018
:1004B2001EF157C01FF1C7A421D054505510561039
:1004C20057101BE001011C511D111E111F110EE1DD
:1004D200BEC0E1FFBFC0E2FF040EE66EBCC000F08A
:1004E200BDC001F0A5DE010E006E3AD0010E010181
:1004F2001C5F000E1D5B1E5B1F5BDDD754C01CF131
:1005020055C01DF156C01EF157C01FF19EB621D035
:1005120054505510561057101BE001011C511D116B
:100522001E111F110EE1BEC0E1FFBFC0E2FF040EAB
:10053200E66EBCC000F0BDC001F07ADE010E006EB6
:100542000FD0010E01011C5F000E1D5B1E5B1F5BC5
:10055200DDD7C5BC02D0006A03D0C584020E006E8E
:02056200120085
:1005640058C01BF159C01CF15AC01DF15BC01EF1EB
:10057400668266A21FD0585059105A105B1019E0B9
:1005840001011B511C111D111E110CE1BAC0E1FF28
:10059400BBC0E2FF060EE66EB8C000F0B9C001F0C1
:1005A40046DE08D0010E01011B5F000E1C5B1D5BC3
:0605B4001E5BDFD7120000
:1005BA00A19A1BC16AFF58C01CF159C01DF15AC04B
:1005CA001EF15BC01FF168A421D0585059105A106F
:1005DA005B101BE001011C511D111E111F110EE1C0
:1005EA00BAC0E1FFBBC0E2FF040EE66EB8C000F07D
:1005FA00B9C001F019DE010E006E3AD0010E0101F8
:10060A001C5F000E1D5B1E5B1F5BDDD758C01CF113
:10061A0059C01DF15AC01EF15BC01FF1A1BA21D009
:10062A00585059105A105B101BE001011C511D1142
:10063A001E111F110EE1BAC0E1FFBBC0E2FF040E9A
:10064A00E66EB8C000F0B9C001F0EEDD010E006E32
:10065A000FD0010E01011C5F000E1D5B1E5B1F5BAC
:10066A00DDD766BC02D0006A03D06684020E006E33
:02067A0012006C
:0A067C00000E82B4010E006E1200A1
:0A068600000E80B4010E006E120099
:1006900054C01DF155C01EF156C01FF157C020F1C6
:1006A0009E96C5869EB61FD05450551056105710B2
:1006B00019E001011D511E111F1120110CE1BEC0D6
:1006C000E1FFBFC0E2FF030EE66EBCC000F0BDC09C
:1006D00001F0AFDD08D0010E01011D5F000E1E5BB1
:1006E0001F5B205BDFD70101C9CF1CF11B51000A42
:1006F00002E1C58A01D0C59A9E96C58854C01DF1F5
:1007000055C01EF156C01FF157C020F19EB61FD034
:10071000545055105610571019E001011D511E116B
:100720001F1120110CE1BEC0E1FFBFC0E2FF030EAC
:10073000E66EBCC000F0BDC001F07BDD08D0010E4C
:1007400001011D5F000E1E5B1F5B205BDFD71CC11C
:0407500000F01200A3
:0407540066841200A5
:1007580054C01BF155C01CF156C01DF157C01EF105
:10076800C582C5A21FD0545055105610571019E015
:1007780001011B511C111D111E110CE1BEC0E1FF2E
:10078800BFC0E2FF060EE66EBCC000F0BDC001F0BF
:100798004CDD08D0010E01011B5F000E1C5B1D5BC8
:0607A8001E5BDFD712000A
:0A07AE00000E82B8010E006E12006A
:1007B80054C01DF155C01EF156C01FF157C020F19D
:1007C80001011B6B1C6B1C51120802E11B518E08A6
:1007D80008E344DD005201E004D001011B4B1C2B4F
:1007E800F2D70101120E1C5D02E18F0E1B5D03E3BF
:1007F8007B0E006E24D0C580C5A020D05450551063
:10080800561057101AE01D511E111F1120110EE12C
:10081800BEC0E1FFBFC0E2FF050EE66EBCC000F03F
:10082800BDC001F002DD010E006E09D0010E01010C
:100838001D5F000E1E5B1F5B205BDED7006A120087
:0A084800000E86B2010E006E1200D1
:100852001DCF01F00F0122A302D02299228901C0EB
:0408620000F0120090
:0A086600000E82BA010E006E1200AF
:04087000C584120029
:0A087400000E82B8010E006E1200A3
:0A087E00000E81B4010E006E12009E
:0A088800000E86B4010E006E12008F
:0A089200000E82B6010E006E120087
:0A089C00000EACB2010E006E120057
:0C08A600000E0F0121B3010E006E1200C5
:0A08B200000E84B0010E006E12006B
:0A08BC00000E82B2010E006E120061
:0A08C600000E82B6010E006E120053
:0A08D000000E82B8010E006E120047
:0A08DA00000E80B0010E006E120047
:0A08E400000E82B6010E006E120035
:0A08EE00000E86B0010E006E12002D
:0A08F800000E84B4010E006E120021
:0A090200000E81B0010E006E12001D
:0A090C00000E82B0010E006E120012
:100916000B840BAE96EF04F0010E036E026A016AB9
:0A092600006A0A360232FF0E1200CA
:100930000B820BAEA2EF04F0036802680168006846
:080940000A360232FF0E12001C
:100948000101116B126B66C000F067C001F06DDC2D
:1009580000C011F1000E0101126F11C100F012C1A7
:0409680001F0120088
:08096C000AAE029E000E12000B
:100974000101196B1A6B12C117F113C118F111C1DE
:1009840000F000360090B6C0E1FFB7C0E2FF00C03F
:10099400E6FFB4C000F0B5C001F049DC005001012D
:1009A4001913000E1A1314C100F015C101F0010E41
:1009B400145F000E155B0050011017E0B6C0E1FF94
:1009C400B7C0E2FF17C1E9FF18C1EAFFEECFE6FFA7
:1009D400B4C000F0B5C001F02ADC005001011913C5
:1009E400000E1A13174B182BDED71651000A05E117
:1009F40072C000F073C001F01ADC01011651010A43
:100A040005E16AC000F06BC001F011DC19C100F00F
:060A14001AC101F01200FE
:100A1A000101196B1A6B12C117F113C118F111C137
:100A2A0000F0003600900080B6C0E1FFB7C0E2FFD8
:100A3A0000C0E6FFB4C000F0B5C001F019EC01F047
:100A4A00005001011913000E1A13010E145F000E53
:100A5A00155B1451151116E0CFC0E1FFD0C0E2FFBB
:100A6A00010EE66ECDC000F0CEC001F019EC01F027
:100A7A0017C1E1FF18C1E2FF00C0E6FF0101174BF1
:100A8A00182BE3D7CFC0E1FFD0C0E2FFE66ACDC0A2
:100A9A0000F0CEC001F019EC01F017C1E1FF18C156
:100AAA00E2FF00C0E6FF01011651000A06E172C02A
:100ABA0000F073C001F019EC01F001011651010AAE
:100ACA0006E16AC000F06BC001F019EC01F019C12F
:080ADA0000F01AC101F0120046
:0E0AE200026A016A006A086A036A000E1200C6
:100AF000640E00016E6F020E6F6F000E706F000EBD
:100B0000716FB80EC06F070EC16F000EC26F000E7E
:100B1000C36F580EED6F070EEE6F000EEF6F000EF5
:100B2000F06F900EF16F060EF26F1B0EF36F010E59
:100B3000F46FA20ED96F040EDA6F1B0EDB6F010E7D
:100B4000DC6F700ED56F080ED66F000ED76F000EDB
:100B5000D86F949894968B988B9694889486C79E19
:080B6000C79C380EC66E12009E
:100B68000C6A0E6A0250D8A4CDEF05F001C002F05D
:100B780000C001F0006A0E860250D8A4CDEF05F03F
:100B880001C002F0016A0E960E880250D8B4DFEF59
:100B980005F00E50035ED8A4D8A0E4EF05F0D89075
:100BA80002BEE9EF05F0003601360236032ED4EF17
:100BB80005F0E4EF05F0010E0C6E8FDFECEF05F0A9
:100BC800020E0C6EA4DEECEF05F0040E0C6ECADE0D
:020BD800120009
:100BDA007A0E0001DD6F010EDE6F210EDF6F010E4E
:100BEA00E06F520EE16F080EE26F000EE36F000E27
:100BFA00E46FD80EE56F020EE66F000EE76F000E87
:100C0A00E86FA60ED16F080ED26F000ED36F000EDA
:100C1A00D46F0F01218B900E226F98849892A4AA08
:0A0C2A0003D01DCF00F0FBD712002D
:100C34000BC10EF187DECCC011F10E0E126F010E46
:100C4400136F010E146F000E156F010E166F90DEF8
:100C5400CCC011F10F0E0101126F010E136F020EC1
:100C6400146F000E156F166BD6DE10C10CF1000E5A
:100C740001010D6F0CC101F0006A00C00CF101C04C
:100C84000DF10F510012000E011200C00CF101C051
:040C94000DF112004C
:100C98008A0E0001DD6F010EDE6F210EDF6F010E7F
:100CA800E06F720EE16F030EE26F000EE36F000E4D
:100CB800E46F980EE56F030EE66F000EE76F000E07
:100CC800E86F9C0ED16F080ED26F000ED36F000E26
:100CD800D46FAC8A900EAB6E948E949C9EAA03D06F
:080CE800AECF00F0FBD71200B3
:100CF000086A096A000E07620364FDEF06F00250FD
:100D000006180A6E075003267E0ED8A08EEF06F056
:100D1000035ED8B001EF07F092EF06F0035ED8A0B3
:100D200005EF07F0028E068E02C00EF001C00BF038
:100D300000C00DF000500402F4CF0CF00150050289
:100D4000F4CF00F0F3CF08F00402F3500C26F45077
:100D50000822000E00220D500502F3500C26F4501C
:100D60000822000E002202500402F3500826F4501C
:100D7000002202500502016A000E0122F3500026F3
:100D8000F45001220D500602F3500826F4500022C0
:100D9000026A000E012202220B500602F3500026C6
:100DA000F4500122000E02220E500602F3500126DA
:100DB000F450022202BEE5EF06F008360036013696
:100DC00002360306D8B405EF07F0F8EF06F0D88036
:100DD000800E08640030000E002201220222D8A0FA
:100DE000F8EF06F0023201320032034A01EF07F059
:100DF0000AAE029E000E07EF07F0010E72DE07EF4B
:100E000007F0020E95DD07EF07F0040E84DD1200F7
:100E10000B800BAE14EF07F0026A0AAEFF0E026EF3
:0C0E2000016E006E0A360232FF0E120056
:080E2C000B6A0B86FF0E120099
:100E340003C1F6FF04C1F7FF05C1F8FF0900F5CFB0
:100E440066F00900F5CF67F00900F5CF68F00900F6
:100E5400F5CF69F0040E01010325F66E000E04219E
:100E6400F76E000E0521F86E0900F5CF72F0090047
:100E7400F5CF73F00900F5CF74F00900F5CF75F0E4
:100E8400080E0325F66E000E0421F76E000E0521F0
:100E9400F86E0900F5CF6AF00900F5CF6BF0090090
:100EA400F5CF6CF00900F5CF6DF00C0E0325F66E4E
:100EB400000E0421F76E000E0521F86E0900F5CF2F
:100EC400B4F00900F5CFB5F00900F5CFB6F009008C
:100ED400F5CFB7F0100E0325F66E000E0421F76E61
:100EE400000E0521F86E0900F5CFCDF00900F5CF0D
:100EF400CEF00900F5CFCFF00900F5CFD0F0120005
:100F040038D00F0120870D0E1F6F040E1E6F218530
:100F140062DE7ED00F012087060E1F6F820E1E6FC9
:100F2400218559DE75D00F012087030E1F6F400EF7
:100F34001E6F218550DE6CD00F012087010E1F6FBC
:100F4400A00E1E6F218547DE63D00F012087010E9E
:100F54001F6F150E1E6F21853EDE5AD00F012087AC
:100F64001F6B8A0E1E6F218536DE52D0060E006E70
:100F740059D0000E006E0101061908E10050051950
:100F840005E1120E041902E10351C00ABAE0000E91
:100F9400006E061908E10050051905E1250E041933
:100FA40002E10351800AB6E0000E006E061908E162
:100FB4000050051905E14B0E041902E10351000A22
:100FC400B2E0000E006E061908E10050051905E1B3
:100FD400960E041902E10351000AAEE0000E006E01
:100FE400061908E10050051905E1E10E041902E1B2
:100FF4000351000AAAE00651000A08E10551010A5A
:1010040005E10451C20A02E10351000AA7E0AED788
:101014007A0E0001C46F010EC56F210EC66F010E5A
:06102400C76F006A120014
:10102A0059D0010104B102D0929001D092800F01EF
:10103A00259176D0010104B102D0949001D0948018
:10104A006FD0010104B102D0969001D0968068D089
:10105A00010104B102D0949601D0948661D00101B5
:10106A0004B102D0949801D094885AD0010104B1F5
:10107A0002D0949A01D0948A53D0010104B102D0CB
:10108A00949201D094824CD0010104B102D0939081
:10109A0001D0938045D0010104B102D0949E01D0C1
:1010AA00948E3ED0010104B102D0949C01D0948C5C
:1010BA0037D0010104B102D0949601D0948630D081
:1010CA00010104B102D0949801D0948829D0010E6C
:1010DA00006E28D001010351000AA3E00351010A5E
:1010EA00A9E00351020AADE00351030AB1E003513A
:1010FA00040AB5E00351050AB9E00351060ABDE046
:10110A000351070AC1E00351080AC5E00351090A5D
:10111A00C9E003510A0ACDE003510B0AD1E0D7D73F
:06112A00000E006E120031
:1011300021D0CF0EAF6EAC94AFDD6BD0670EAF6E2B
:10114000AC94AADD66D0CF0EAF6EAC84A5DD61D0C5
:10115000670EAF6EAC84A0DD5CD0440EAF6EAC8485
:101160009BDD57D0220EAF6EAC8496DD52D0060EBA
:10117000006E59D0000E006E0101061908E1005002
:10118000051905E1120E041902E10351C00AD1E06C
:10119000000E006E061908E10050051905E1250E44
:1011A000041902E10351800AC9E0000E006E06191D
:1011B00008E10050051905E14B0E041902E1035145
:1011C000000AC1E0000E006E061908E10050051982
:1011D00005E1960E041902E10351000AB9E0000E80
:1011E000006E061908E10050051905E1E10E041929
:1011F00002E10351000AB1E00651000A08E105517D
:10120000010A05E10451C20A02E10351000AAAE001
:10121000AED78A0E0001C46F010EC56F210EC66FD6
:08122000010EC76F006A120005
:10122800C6C0E1FFC7C0E2FF03C1E9FF04C1EAFF8E
:10123800EECFE6FFC4C000F0C5C001F019EC01F024
:04124800006A120026
:10124C0003C106F104C107F105C108F10BD0A00ED2
:10125C00C86E48DC44D0280EC86E44DC40D0040E66
:10126C00006E3FD006C1F6FF07C1F7FF08C1F8FFBB
:10127C000900F5CF01F00900F5CF02F00900F5CF18
:10128C0003F00900F5CF04F00450000A08E1035004
:10129C00010A05E10250860A02E10150A00AD7E0DA
:1012AC0006C1F6FF07C1F7FF08C1F8FF0900F5CF2B
:1012BC0001F00900F5CF02F00900F5CF03F00900A9
:1012CC00F5CF04F00450000A08E10350060A05E1CA
:1012DC0002501A0A02E10150800ABDE0C0D7000E8C
:0412EC00006E12007E
:1012F00003C106F104C107F105C108F10DD0A00E2C
:10130000C86E78EC05F045D0280EC86E78EC05F074
:1013100040D0040E006E3FD006C1F6FF07C1F7FFB4
:1013200008C1F8FF0900F5CF01F00900F5CF02F080
:101330000900F5CF03F00900F5CF04F00450000ACE
:1013400008E10350010A05E10250860A02E101505A
:10135000A00AD5E006C1F6FF07C1F7FF08C1F8FFF4
:101360000900F5CF01F00900F5CF02F00900F5CF33
:1013700003F00900F5CF04F00450000A08E103501F
:10138000060A05E102501A0A02E10150800ABCE097
:08139000C0D7000E006E120030
:1013980003C106F104C107F105C108F10DD0A00E83
:1013A800C86E78EC05F045D0280EC86E78EC05F0CC
:1013B80040D0040E006E3FD006C1F6FF07C1F7FF0C
:1013C80008C1F8FF0900F5CF01F00900F5CF02F0D8
:1013D8000900F5CF03F00900F5CF04F00450000A26
:1013E80008E10350010A05E10250860A02E10150B2
:1013F800A00AD5E006C1F6FF07C1F7FF08C1F8FF4C
:101408000900F5CF01F00900F5CF02F00900F5CF8A
:1014180003F00900F5CF04F00450000A08E1035076
:10142800060A05E102501A0A02E10150800ABCE0EE
:08143800C0D7000E006E120087
:101440005DD0010104B102D0929401D092840F01C9
:1014500025957AD0010104B102D0969601D09686E6
:1014600073D0010104B102D0969401D096846CD05F
:10147000010104B102D0949601D0948665D0010197
:1014800004B102D0949801D094885ED0010104B1D7
:1014900002D0949A01D0948A57D0010104B102D0AD
:1014A000989001D0988050D0010104B102D093945B
:1014B00001D0938449D0010104B102D0989401D0A5
:1014C00098840F01239540D0010104B102D0989275
:1014D00001D098820F01239337D0010104B102D0CB
:1014E000949601D0948630D0010104B102D0949832
:1014F00001D0948829D0010E006E28D0010103513B
:10150000000A9FE00351010AA5E00351020AA9E085
:101510000351030AADE00351040AB1E00351050A87
:10152000B5E00351060AB9E00351070ABDE00351D3
:10153000080AC1E00351090AC7E003510A0ACDE0D5
:0E15400003510B0AD1E0D7D7000E006E120047
:10154E0027D0CF0EAF6EAC944CEC06F070D0670E79
:10155E00AF6EAC944CEC06F06AD0CF0EAF6EAC848E
:10156E004CEC06F064D0670EAF6EAC844CEC06F01B
:10157E005ED0440EAF6EAC844CEC06F058D0220E0A
:10158E00AF6EAC844CEC06F052D0060E006E59D005
:10159E00000E006E0101061908E10050051905E163
:1015AE00120E041902E10351C00ACBE0000E006EC8
:1015BE00061908E10050051905E1250E041902E18E
:1015CE000351800AC4E0000E006E061908E10050B7
:1015DE00051905E14B0E041902E10351000ABDE0A5
:1015EE00000E006E061908E10050051905E1960E71
:1015FE00041902E10351000AB6E0000E006E06194E
:10160E0008E10050051905E1E10E041902E103514C
:10161E00000AAFE00651000A08E10551010A05E192
:10162E000451C20A02E10351000AA9E0AED78A0EA4
:10163E000001C46F010EC56F210EC66F010EC76F7C
:04164E00006A12001C
:1016520059D0010104B102D0929201D092820F01BD
:10166200259376D0010104B102D0929801D09288DC
:101672006FD0010104B102D0969201D0968268D057
:10168200010104B102D0949601D0948661D0010187
:1016920004B102D0949801D094885AD0010104B1C7
:1016A20002D0949A01D0948A53D0010104B102D09D
:1016B200949401D094844CD0010104B102D093924D
:1016C20001D0938245D0010104B102D0949E01D091
:1016D200948E3ED0010104B102D0949C01D0948C2E
:1016E20037D0010104B102D0949601D0948630D053
:1016F200010104B102D0949801D0948829D0010E3E
:10170200006E28D001010351000AA3E00351010A2F
:10171200A9E00351020AADE00351030AB1E003510B
:10172200040AB5E00351050AB9E00351060ABDE017
:101732000351070AC1E00351080AC5E00351090A2F
:10174200C9E003510A0ACDE003510B0AD1E0D7D711
:06175200000E006E120003
:1017580027D0CF0EAF6EAC944CEC06F070D0670E6D
:10176800AF6EAC944CEC06F06AD0CF0EAF6EAC8482
:101778004CEC06F064D0670EAF6EAC844CEC06F00F
:101788005ED0440EAF6EAC844CEC06F058D0220EFE
:10179800AF6EAC844CEC06F052D0060E006E59D0F9
:1017A800000E006E0101061908E10050051905E157
:1017B800120E041902E10351C00ACBE0000E006EBC
:1017C800061908E10050051905E1250E041902E182
:1017D8000351800AC4E0000E006E061908E10050AB
:1017E800051905E14B0E041902E10351000ABDE099
:1017F800000E006E061908E10050051905E1960E65
:10180800041902E10351000AB6E0000E006E061941
:1018180008E10050051905E1E10E041902E1035140
:10182800000AAFE00651000A08E10551010A05E186
:101838000451C20A02E10351000AA9E0AED78A0E98
:101848000001C46F010EC56F210EC66F010EC76F70
:04185800006A120010
:10185C00300E01010325006E000E0421016E000EF6
:10186C000521026E1C0E0024F66E000E0120F76E90
:10187C00000E0220F86E0900F5CFC8F00900F5CF74
:10188C00C9F00900F5CFCAF00900F5CFCBF0120072
:10189C0003C104F004C105F004C002F005C003F05C
:1018AC00044A052A05C100F006C101F00101054BEF
:1018BC00062B00C0E9FF01C0EAFF02C0E1FF03C034
:1018CC00E2FFEECFE6FF02C0E9FF03C0EAFFEE52F3
:0E18DC0001E0E2D703C100F004C101F01200E8
:1018EA000A6A0350D8A40A800750D8A40A820A5068
:1018FA00D8B4D8EF0CF0030AD8B491EF0CF00AB0C0
:10190A008CEF0CF006AED6EF0CF0D4EF0CF002AE72
:10191A00D4EF0CF0D6EF0CF00250800B0A6E029E48
:10192A000650800B069E0A18D8B4A2EF0CF00A5093
:10193A00D8B4D4EF0CF0D6EF0CF00750035CD8B44F
:10194A00ACEF0CF0D8A0C8EF0CF0CEEF0CF00650BC
:10195A00025CD8B4B6EF0CF0D8A0C8EF0CF0CEEF0A
:10196A000CF00550015CD8B4C0EF0CF0D8A0C8EF59
:10197A000CF0CEEF0CF00450005CD8B4D8EF0CF0A9
:10198A00D8B0CEEF0CF00A52D8B4D6EF0CF0D4EFA0
:10199A000CF00A52D8B4D4EF0CF0D6EF0CF0D88081
:0E19AA001200D8901200D880D88412001200CB
:1019B8000D6A086A0050D8B4000C04180A6E0ABEF2
:1019C8000D1E0B6A04AE02D0041E042A00AE02D01B
:1019D800001E002A005004100A6E0ABE1FD00450D0
:1019E800085E003600340836045008260036060E15
:1019F8000C6E00340836045000B0085E00A00826BB
:101A080000360C2EF6D700A008260BB015D00DAE68
:101A1800000C001E002A081E082A000C04AE09D07B
:101A280000BE04D00050086E006AF1D7006A002A90
:101A3800000C001E0B2AD3D7082A0450085CD8A42F
:0E1A4800E6D7086A002A00AEE2D7FF0C1200B3
:101A56000450000A12E10550000A0FE10650000A80
:101A66000CE10750000A09E1FF0E006EFF0E016E41
:101A76007F0E026EFF0E036EA8D0086A096A075031
:101A8600D8B4D6EF0DF00350D8B4DBEF0DF002500A
:101A960006180A6E028E068E0E6A02C008F001C093
:101AA6000CF000C00DF004500D5E0550D8A0053CAA
:101AB6000C5E0650D8A0063C085E086A0C6A0D6AE1
:101AC600D8A06DEF0DF0D890023201320032083204
:101AD600010E0E6E0750035ED8A07AEF0DF07E0E53
:101AE6000E240326D8B0E0EF0DF080EF0DF07E0E49
:101AF6000E240326D8A0E5EF0DF0180E0B6E0D365A
:101B06000C3608360036013602360E360450005EB4
:101B16000550D8A0053C015E0650D8A0063C025EE2
:101B260006340E120EA09BEF0DF00D80A6EF0DF001
:101B3600045000260550D8B0053C01260650D8B002
:101B4600062802260D900B2E82EF0DF0CCEF0DF03D
:101B5600D8900036013602360E360450005E055027
:101B6600D8A0053C015E0650D8A0063C025E0634AD
:101B76000E10010B0D26D8B00C2AD8B4082AD8A40A
:101B8600CCEF0DF008320C320D32032AD8B4E0EF58
:101B96000DF00AAE089E0850026E0C50016E0D50F4
:101BA600006EE8EF0DF0010E16EC07F0E8EF0DF011
:101BB600020E71EC05F0E8EF0DF0040E98EC04F05F
:0C1BC600E8EF0DF0080E8BEC04F01200AC
:101BD2000B6A0C6A0A6A0350D8B433EF0EF0028E15
:101BE2008E0E035E03BEFBEF0DF0D8B4FBEF0DF0DB
:101BF20037EF0EF0036C080E035CD8A012EF0EF064
:101C0200036E013602C001F0026A080E035CD8A01E
:101C120012EF0EF00136016A0350D8A4D8901CEFDF
:101C22000EF00350D8B41CEF0EF0D89002320132FD
:101C3200032E16EF0EF00BBC01A029EF0EF0D8A078
:101C420029EF0EF0012AD8B4022A02BE46EF0EF0A6
:101C52000AAE4CEF0EF0021E011E012AD8B4022A6F
:101C62004CEF0EF0026A016A4CEF0EF00B800BAEE5
:101C720050EF0EF0026A0AAE50EF0EF0FF0E026E47
:101C8200016E0A36023250EF0EF0010E0C6E08ECB5
:101C920007F052EF0EF0000E0C6E52EF0EF0FF0E38
:0C1CA2000C6E0150006E0250016E12002A
:101CAE000050086E0150006E016A026A036A0B6AE8
:101CBE000C6A960E036E0A6A00C001F008C000F0AE
:0A1CCE00086A026AB4EC05F0120087
:101CD800FA0E0101076FED0E086F6B0E096F760E95
:101CE8000A6F0B6B1AEC06F000C003F101C004F197
:101CF80000C005F101C006F10B0E046E00C002F031
:101D080001C003F0045005E003320232039EFF0FC6
:101D1800FAD702C003F103C004F1030E0214046EE3
:101D280003C005F0000E051604C003F105C004F158
:101D3800060E026E00C005F101C006F1025005E072
:101D480006330533069FFF0FFAD70F0E0517000E4F
:101D58000617000E051802E1010E041801E162D011
:101D6800000E041902E1000E03191BE107C100F07F
:101D780008C101F009C102F00AC103F0000E046EA7
:101D8800000E056E000E066E800E076E78EC06F0EB
:101D980000C007F101C008F102C009F103C00AF14F
:101DA80041D0000E041902E1030E03191BE107C11B
:101DB80000F008C101F009C102F00AC103F0000EE9
:101DC800046E000E056E000E066E820E076E78EC2D
:101DD80006F000C007F101C008F102C009F103C014
:101DE8000AF120D0000E041902E1020E03191AE1CB
:101DF80007C100F008C101F009C102F00AC103F0EF
:101E0800000E046E000E056E000E066E830E076E41
:101E180078EC06F000C007F101C008F102C009F132
:101E280003C00AF1000E061902E1030E051901E1CB
:101E3800A4D0000E061902E1020E05191BE107C124
:101E480000F008C101F009C102F00AC103F0000E58
:101E5800046E000E056E000E066E800E076E78EC9E
:101E680006F000C007F101C008F102C009F103C083
:101E78000AF183D0000E061902E1010E05191BE1D3
:101E880007C100F008C101F009C102F00AC103F05E
:101E9800000E046E000E056E000E066E810E076EB3
:101EA80078EC06F000C007F101C008F102C009F1A2
:101EB80003C00AF162D0000E061902E1000E0519EE
:101EC8001BE107C100F008C101F009C102F00AC115
:101ED80003F0000E046E000E056E000E066E820EF4
:101EE800076E78EC06F000C007F101C008F102C0E7
:101EF80009F103C00AF141D0000E061902E1080EEB
:101F080005191BE107C100F008C101F009C102F081
:101F18000AC103F0000E046E000E056E000E066E78
:101F2800830E076E78EC06F000C007F101C008F1D7
:101F380002C009F103C00AF120D0000E061902E11F
:101F48000C0E05191AE107C100F008C101F009C11A
:101F580002F00AC103F0000E046E000E056E000EBA
:101F6800066E840E076E78EC06F000C007F101C01B
:101F780008F102C009F103C00AF107C100F008C165
:0C1F880001F009C102F00AC103F01200D0
:101F940003C106F104C107F105C100F0016A00C0E4
:101FA40008F1A4EC04F0CCC011F1060E126F010E7E
:101FB400136F030E146F000E156F166BBAEC04F05A
:021FC400120009
:101FC60088DE00C004F001C005F002C006F003C0C0
:101FD60007F0F5C000F0F6C001F0F7C002F0F8C057
:101FE60003F036DDF3DD010E0101036F00C004F1DD
:081FF60001C005F1CCDF12006F
:101FFE0001010B6B1AEC06F000C0F5F001C0F6F013
:10200E00030E0B6F1AEC06F000C0F7F001C0F8F0EB
:10201E00060E046EF5C002F0F6C003F0045005E0A3
:10202E0003320232039EFF0FFAD702C0F5F003C04F
:10203E00F6F00F0E0214046E03C005F0000E051626
:10204E0004C0F5F005C0F6F000C0F7F001C0F8F0DE
:10205E000001F833F733F89F030EF717000EF81749
:10206E00000E051802E10C0E04182CE1000EF819F2
:10207E0002E1000EF71905E10D0EF96F020EFA6F6F
:10208E0020D0000EF81902E1010EF71905E1010E3C
:10209E00F96F040EFA6F15D0000EF81902E1020E58
:1020AE00F71905E1E90EF96F070EFA6F0AD0000E67
:1020BE00F81902E1030EF71904E1B90EF96F0F0ECC
:1020CE00FA6FF9D0000EF61902E1080EF5192CE19F
:1020DE00000EF81902E1000EF71905E1260EF96F50
:1020EE00020EFA6F20D0000EF81902E1010EF71958
:1020FE0005E11A0EF96F040EFA6F15D0000EF819DD
:10210E0002E1020EF71905E1020EF96F080EFA6FE1
:10211E000AD0000EF81902E1030EF71904E1D20EEF
:10212E00F96F0F0EFA6FC7D0000EF61902E1000E0E
:10213E00F5192CE1000EF81902E1000EF71905E170
:10214E00580EF96F020EFA6F20D0000EF81902E148
:10215E00010EF71905E14C0EF96F040EFA6F15D04A
:10216E00000EF81902E1020EF71905E1340EF96FAF
:10217E00080EFA6F0AD0000EF81902E1030EF719D5
:10218E0004E1040EF96F100EFA6F95D0000EF619D9
:10219E0002E1010EF5192CE1000EF81902E1000E14
:1021AE00F71905E1BC0EF96F020EFA6F20D0000E82
:1021BE00F81902E1010EF71905E1B00EF96F040EE0
:1021CE00FA6F15D0000EF81902E1020EF71905E1AB
:1021DE00980EF96F080EFA6F0AD0000EF81902E188
:1021EE00030EF71904E1680EF96F100EFA6F63D043
:1021FE00000EF61902E1020EF5192CE1000EF81987
:10220E0002E1000EF71905E1840EF96F030EFA6F65
:10221E0020D0000EF81902E1010EF71905E1780E33
:10222E00F96F050EFA6F15D0000EF81902E1020EC5
:10223E00F71905E1600EF96F090EFA6F0AD0000E5C
:10224E00F81902E1030EF71904E1300EF96F110EC1
:10225E00FA6F31D0000EF61902E1030EF5192BE1DB
:10226E00000EF81902E1000EF71905E1140EF96FD0
:10227E00050EFA6F20D0000EF81902E1010EF719C3
:10228E0005E1080EF96F070EFA6F15D0000EF8195A
:10229E0002E1020EF71905E1F00EF96F0A0EFA6F60
:1022AE000AD0000EF81902E1030EF71904E1C00E70
:1022BE00F96F120EFA6FF9C000F0FAC001F01200B9
:1022CE001ED0F6C003F1F7C004F1F8C005F1CCEC56
:1022DE0009F020D0F6C003F1F7C004F1F8C005F103
:1022EE0078EC09F017D0F6C003F1F7C004F1F8C08E
:1022FE0005F126EC09F00ED0010E006E0BD0000198
:10230E00F551000ADEE0F551010AE4E0F551020A4A
:06231E00EAE0F2D7120014
:1023240018D0F6C003F1F7C004F115EC08F01CD086
:10233400F6C003F1F7C004F129EC0BF015D0F6C098
:1023440003F1F7C004F120EC0AF00ED0010E006E88
:102354000BD00001F551000AE4E0F551010AE8E070
:0A236400F551020AECE0F2D7120076
:10236E000101036B020E046F0B0E056F0CDE030EE4
:10237E000101036F010E046F000E056F04DE1200E3
:10238E00FBC0CCF0F8C003F1F9C004F1FAC005F1BE
:10239E001AEC07F0F5C003F1F6C004F1F7C005F131
:0623AE002EEC0CF0120001
:1023B4000101016B026BF5C0FDF0F6C0FEF0F7C041
:1023C400FFF0F8C000F10051FF0A09E10001FF51DC
:1023D400FF0A05E1FE51FF0A02E1FD51FF0A0EE189
:1023E400F9C003F1FAC004F1620E0101056F000E99
:1023F400066F4EEC0CF0030E006E14D2010E0001B9
:10240400FB6FFFAF0ED0800EFF19006E00C0FFF00F
:10241400FB2BF9C0E1FFFAC0E2FF2D0EE66EF94B8B
:10242400FA2B000E006E0101001909E100500001B1
:10243400FF1905E10050FE1902E1FD51000A0DE10A
:10244400F9C003F1FAC004F1600E0101056F000E3A
:10245400066F4EEC0CF0006AE5D101010051FF0A51
:1024640009E10001FF51000A05E1FE51000A02E101
:10247400FD51000A0EE1F9C003F1FAC004F15C0E4B
:102484000101056F000E066F4EEC0CF0FBC000F06E
:10249400C9D1000E046E000E056E000E066E7F0E8E
:1024A400076EFDC000F0FEC001F0FFC002F000C1E5
:1024B40003F075EC0CF0010ED8B0000E006E005263
:1024C4001DE00101FDC000F0FEC001F0FFC002F0FC
:1024D40000C103F0000E046E000E056E200E066EA1
:1024E400820E076E78EC06F000C0FDF001C0FEF02D
:1024F40002C0FFF003C000F10207CBD7000E046E48
:10250400000E056E200E066E820E076EFDC000F0F2
:10251400FEC001F0FFC002F000C103F075EC0CF046
:10252400000ED8B0010E006E00521DE00101FDC086
:1025340000F0FEC001F0FFC002F000C103F0CD0EB8
:10254400046ECC0E056E4C0E066E7B0E076E78EC98
:1025540006F000C0FDF001C0FEF002C0FFF003C0B1
:1025640000F1022BCBD7FF0E0001FD15086EFF0E04
:10257400FE15096E7F0EFF150A6E000E010100158F
:102584000B6E08C004F009C005F00AC006F00BC0C9
:1025940007F004360490053606360736000E0001AF
:1025A400FD15006E000EFE15016E000EFF15026E85
:1025B400FF0E01010015036E00C0FDF001C0FEF026
:1025C40002C0FFF003C000F104500001FD11006ED1
:1025D4000550FE11016E0650FF11026E07500101F5
:1025E4000011036E00C0FDF001C0FEF002C0FFF058
:1025F40003C000F17F0E005D006E00C0FCF0010E10
:10260400006F00C004F0FDC000F0FEC001F0FFC088
:1026140002F000C103F0045007E0003600900136D8
:1026240002360336FF0FF8D700C0FDF001C0FEF0FC
:1026340002C0FFF003C000F1F9C0E1FFFAC0E2FFFD
:102644000051300FE66E0001F94BFA2B800E0101A8
:102654000219006E800E010A005C08E3800E060A6F
:10266400006E800E0219005C01E30CD0F9C0E1FF9A
:10267400FAC0E2FF2E0EE66E0001F94BFA2B010EB2
:102684000101016F060E0001FC6FFC51000A5CE0C1
:102694000101006BFDC000F0FEC001F0FFC002F0BC
:1026A40000C103F0003600900136023603360036CE
:1026B40000900136023603360001FD510026FE511A
:1026C4000122FF51022201010051032200C0FDF04A
:1026D40001C0FEF002C0FFF003C000F1FDC000F035
:1026E400FEC001F0FFC002F000C103F0003600900C
:1026F40001360236033600C0FDF001C0FEF002C010
:10270400FFF003C000F1F9C0E1FFFAC0E2FF00519D
:10271400300FE66E0001F94BFA2B01010151000A5A
:1027240010E102070251000A0CE1F9C0E1FFFAC00E
:10273400E2FF2E0EE66E0001F94BFA2B010E0101A9
:10274400016F0001FC07A1D7FF0EF925E96EFF0E0A
:10275400FA21EA6EEE50300A05E1010EF95F000E2F
:10276400FA5BF2D7FF0EF925E96EFF0EFA21EA6E45
:10277400EE502E0A04E1010EF95F000EFA5B01012E
:102784000251000A49E0F9C0E1FFFAC0E2FF650E18
:10279400E66E0001F94BFA2B800E01010219006E5E
:1027A400800E000A005C0DE2F9C0E1FFFAC0E2FF0E
:1027B4002D0EE66E0001F94BFA2B010102510008BF
:1027C400026F02C1FCF0800E090A006E800E02192D
:1027D400005C10E20A0E046EFCC000F0DCEC0CF0AD
:1027E400F9C0E1FFFAC0E2FF0050300FE66E0001CD
:1027F400F94BFA2B00010A0E046EFCC000F0DCEC6D
:102804000CF008C000F0F9C0E1FFFAC0E2FF00508C
:10281400300FE66EF94BFA2BF9C0E1FFFAC0E2FF84
:06282400E66A006A1200E2
:10282A00F5C0F8F0F6C0F9F00D0E0001FA6F0A0EC5
:10283A00FB6F3AD0F8C003F1F9C004F114EC09F0C7
:10284A003ED0F8C0E9FFF9C0EAFFEE520AE0F8C04C
:10285A0003F1F9C004F114EC09F00001F84BF92B6B
:10286A00F0D72DD0F8C0E9FFF9C0EAFFEE520AE02E
:10287A00F8C003F1F9C004F114EC09F00001F84BB7
:10288A00F92BF0D7FA0E0101036F000E046F14EC56
:10289A0009F0FB0E0101036F000E046F14EC09F03E
:1028AA000ED0060E006E0CD00001F751000AC2E0ED
:1028BA00F751010AC6E0F751020AD4E0F2D7006ADA
:0228CA001200FA
:1028CC006CEC0EF000C004F001C005F002C006F084
:1028DC0003C007F0F5C000F0F6C001F0F7C002F03D
:1028EC00F8C003F02BEC0DF0E9EC0DF0020E010139
:1028FC00036F00C004F101C005F1CAEC0FF0120027
:10290C002FD0F6C003F1F7C004F1F8C005F1F9C0FF
:10291C0006F1ACEC0BF032D0F6C003F1F7C004F1C9
:10292C00F8C005F1F9C006F1A7EC0AF027D0F6C003
:10293C0003F1F7C004F1F8C005F1F9C006F182EC1F
:10294C0007F01CD0F6C003F1F7C004F1F8C005F194
:10295C00F9C006F198EC08F011D0010E006E0ED003
:10296C000001F551000ACDE0F551010AD5E0F55111
:0E297C00020ADDE0F551100AE5E0EFD7120087
:10298A00040E01010B6F1AEC06F000C0F5F001C04D
:10299A00F6F06CEC0EF000C0F7F001C0F8F002C0DF
:1029AA00F9F003C0FAF0F5C000F0F6C001F057ECF8
:1029BA000EF0F7C004F0F8C005F0F9C006F0FAC04E
:0829CA0007F078EC06F01200A2
:1029D2000001F56B070EF66F010EF76FA2DC000126
:1029E200F56B310EF66F2C0EF76F000EF86F6EDC82
:1029F200100E0001F56F800EF66F250EF76F000EB8
:102A0200F86FF96F82DF090E0B6E1E0E0C6EE40E6C
:102A12000D6E0D2EFED70C2EFCD70B2EFAD7000012
:102A2200150E0001F56F000EF66F020EF76FFCDE59
:022A3200120090
:102A34000900F5CFE6FF0006FBE10106F9E112000B
:102A44006C0E0001F56F2B0EF66F000EF76F1D0E66
:102A5400F86F2C0EF96F000EFA6F100EFB6F95DCF9
:102A6400290E0B6E960E0C6E7F0E0D6E0D2EFED77C
:102A74000C2EFCD70B2EFAD778DCD00E0C6EC90EB8
:102A84000D6E0D2EFED70C2EFCD700000000B0C03A
:102A9400F5F0B1C0F6F0B2C0F7F0B3C0F8F014DF4F
:102AA400ACC0F5F0ADC0F6F0AEC0F7F0AFC0F8F0D2
:102AB400E3EC0FF0FFEC0FF000C0EBF001C0ECF022
:102AC400250EF56F000EF66F020EF76FACDE1200E6
:102AD4000001E96BEA6BEC51EA5D02E1EB51E95D5F
:102AE4000CE2150E0C6EC60E0D6E0D2EFED70C2EBE
:102AF400FCD70000E94BEA2BEED745DF00C0A8F075
:102B040001C0A9F002C0AAF003C0ABF000C0F5F008
:102B140001C0F6F002C0F7F003C0F8F0760E000131
:102B2400F96F000EFA6F44DC350E0001F56F000EEC
:102B3400F66F010EF76F77DE760E0001F56F000E6B
:102B4400F66F010EF76F6FDE4F0E0001F56F000E8A
:0A2B5400F66F020EF76F67DE120045
:0E2B5E001BEC16F037DF6FDFB6DFFED7FFD7B8
:102C360010EE15F0510E006E010E016ECC0EF66E02
:0E2C46002B0EF76E000EF86E1AEC15F0120051
:102B6C00A6012101980121016C01210142012101E1
:102B7C00340121015E0121015001210108022101D2
:102B8C00FA0121012402210116022101EC0121018B
:102B9C00DA0800000C090000B2080000C6080000AA
:102BAC00D0080000CE020000BC08000002090000A2
:102BBC0088020000920200008E0300007E020000DA
:102BCC002073797320696E697420646F6E652000C0
:102BDC002061707020696E697420646F6E652000CE
:102BEC0020416D6269656E74204C69676874204C75
:0A2BFC006576656C203A2020200069
:052C060020206C7800A5
:042C0B0000000000C5
:042C0F0000000000C1
:042C1300494E4600E0
:022C170030008B
:042C19004E614E00BA
:102C1D00B80700007008000058070000A2041B014F
:042C2D0090061B01F1
:042C3100A086010078
:020000040030CA
:0E00000015137F7CF98B91FFFFC0FFE0FF40DE
:00000001FF
